{
    "_format": "hh-sol-artifact-1",
    "contractName": "AdotarAuAu",
    "sourceName": "contracts/AdotarAuAu.sol",
    "abi": [
        {
            "inputs": [
                {
                    "internalType": "uint256",
                    "name": "id",
                    "type": "uint256"
                },
                {
                    "internalType": "string",
                    "name": "nome",
                    "type": "string"
                },
                {
                    "internalType": "string",
                    "name": "porte",
                    "type": "string"
                },
                {
                    "internalType": "string",
                    "name": "idade",
                    "type": "string"
                },
                {
                    "internalType": "string",
                    "name": "sexo",
                    "type": "string"
                }
            ],
            "name": "adotar",
            "outputs": [],
            "stateMutability": "nonpayable",
            "type": "function"
        },
        {
            "inputs": [
                {
                    "internalType": "uint256",
                    "name": "id",
                    "type": "uint256"
                }
            ],
            "name": "obterAdotivo",
            "outputs": [
                {
                    "components": [
                        {
                            "internalType": "uint256",
                            "name": "id",
                            "type": "uint256"
                        },
                        {
                            "internalType": "string",
                            "name": "nome",
                            "type": "string"
                        },
                        {
                            "internalType": "string",
                            "name": "porte",
                            "type": "string"
                        },
                        {
                            "internalType": "string",
                            "name": "idade",
                            "type": "string"
                        },
                        {
                            "internalType": "string",
                            "name": "sexo",
                            "type": "string"
                        },
                        {
                            "internalType": "uint256",
                            "name": "data_adotivo",
                            "type": "uint256"
                        },
                        {
                            "internalType": "address",
                            "name": "adotou",
                            "type": "address"
                        }
                    ],
                    "internalType": "struct AdotarAuAu.FichaAuAu",
                    "name": "",
                    "type": "tuple"
                }
            ],
            "stateMutability": "view",
            "type": "function"
        },
        {
            "inputs": [],
            "name": "obterAdotivos",
            "outputs": [
                {
                    "internalType": "uint256[]",
                    "name": "",
                    "type": "uint256[]"
                }
            ],
            "stateMutability": "view",
            "type": "function"
        }
    ],
    "bytecode": "0x608060405234801561001057600080fd5b50611083806100206000396000f3fe608060405234801561001057600080fd5b50600436106100415760003560e01c8063680d758114610046578063adb00d5814610062578063ae3187c114610080575b600080fd5b610060600480360381019061005b9190610bb1565b6100b0565b005b61006a610532565b6040516100779190610d5a565b60405180910390f35b61009a60048036038101906100959190610d7c565b61058a565b6040516100a79190610f23565b60405180910390f35b6000600160008781526020019081526020016000206040518060e0016040529081600082015481526020016001820180546100ea90610f74565b80601f016020809104026020016040519081016040528092919081815260200182805461011690610f74565b80156101635780601f1061013857610100808354040283529160200191610163565b820191906000526020600020905b81548152906001019060200180831161014657829003601f168201915b5050505050815260200160028201805461017c90610f74565b80601f01602080910402602001604051908101604052809291908181526020018280546101a890610f74565b80156101f55780601f106101ca576101008083540402835291602001916101f5565b820191906000526020600020905b8154815290600101906020018083116101d857829003601f168201915b5050505050815260200160038201805461020e90610f74565b80601f016020809104026020016040519081016040528092919081815260200182805461023a90610f74565b80156102875780601f1061025c57610100808354040283529160200191610287565b820191906000526020600020905b81548152906001019060200180831161026a57829003601f168201915b505050505081526020016004820180546102a090610f74565b80601f01602080910402602001604051908101604052809291908181526020018280546102cc90610f74565b80156103195780601f106102ee57610100808354040283529160200191610319565b820191906000526020600020905b8154815290600101906020018083116102fc57829003601f168201915b50505050508152602001600582015481526020016006820160009054906101000a900473ffffffffffffffffffffffffffffffffffffffff1673ffffffffffffffffffffffffffffffffffffffff1673ffffffffffffffffffffffffffffffffffffffff16815250509050858160000151146103ca576040517f08c379a00000000000000000000000000000000000000000000000000000000081526004016103c190611003565b60405180910390fd5b60008690806001815401808255809150506001900390600052602060002001600090919091909150556040518060e001604052808781526020018681526020018581526020018481526020018381526020014281526020013373ffffffffffffffffffffffffffffffffffffffff168152506001600088815260200190815260200160002060008201518160000155602082015181600101908051906020019061047592919061092b565b50604082015181600201908051906020019061049292919061092b565b5060608201518160030190805190602001906104af92919061092b565b5060808201518160040190805190602001906104cc92919061092b565b5060a0820151816005015560c08201518160060160006101000a81548173ffffffffffffffffffffffffffffffffffffffff021916908373ffffffffffffffffffffffffffffffffffffffff16021790555090505061052a86610869565b505050505050565b6060600080548060200260200160405190810160405280929190818152602001828054801561058057602002820191906000526020600020905b81548152602001906001019080831161056c575b5050505050905090565b6105926109b1565b600160008381526020019081526020016000206040518060e0016040529081600082015481526020016001820180546105ca90610f74565b80601f01602080910402602001604051908101604052809291908181526020018280546105f690610f74565b80156106435780601f1061061857610100808354040283529160200191610643565b820191906000526020600020905b81548152906001019060200180831161062657829003601f168201915b5050505050815260200160028201805461065c90610f74565b80601f016020809104026020016040519081016040528092919081815260200182805461068890610f74565b80156106d55780601f106106aa576101008083540402835291602001916106d5565b820191906000526020600020905b8154815290600101906020018083116106b857829003601f168201915b505050505081526020016003820180546106ee90610f74565b80601f016020809104026020016040519081016040528092919081815260200182805461071a90610f74565b80156107675780601f1061073c57610100808354040283529160200191610767565b820191906000526020600020905b81548152906001019060200180831161074a57829003601f168201915b5050505050815260200160048201805461078090610f74565b80601f01602080910402602001604051908101604052809291908181526020018280546107ac90610f74565b80156107f95780601f106107ce576101008083540402835291602001916107f9565b820191906000526020600020905b8154815290600101906020018083116107dc57829003601f168201915b50505050508152602001600582015481526020016006820160009054906101000a900473ffffffffffffffffffffffffffffffffffffffff1673ffffffffffffffffffffffffffffffffffffffff1673ffffffffffffffffffffffffffffffffffffffff16815250509050919050565b6108ff8160405160240161087d9190611032565b6040516020818303038152906040527ff5b1bba9000000000000000000000000000000000000000000000000000000007bffffffffffffffffffffffffffffffffffffffffffffffffffffffff19166020820180517bffffffffffffffffffffffffffffffffffffffffffffffffffffffff8381831617835250505050610902565b50565b60008151905060006a636f6e736f6c652e6c6f679050602083016000808483855afa5050505050565b82805461093790610f74565b90600052602060002090601f01602090048101928261095957600085556109a0565b82601f1061097257805160ff19168380011785556109a0565b828001600101855582156109a0579182015b8281111561099f578251825591602001919060010190610984565b5b5090506109ad9190610a04565b5090565b6040518060e00160405280600081526020016060815260200160608152602001606081526020016060815260200160008152602001600073ffffffffffffffffffffffffffffffffffffffff1681525090565b5b80821115610a1d576000816000905550600101610a05565b5090565b6000604051905090565b600080fd5b600080fd5b6000819050919050565b610a4881610a35565b8114610a5357600080fd5b50565b600081359050610a6581610a3f565b92915050565b600080fd5b600080fd5b6000601f19601f8301169050919050565b7f4e487b7100000000000000000000000000000000000000000000000000000000600052604160045260246000fd5b610abe82610a75565b810181811067ffffffffffffffff82111715610add57610adc610a86565b5b80604052505050565b6000610af0610a21565b9050610afc8282610ab5565b919050565b600067ffffffffffffffff821115610b1c57610b1b610a86565b5b610b2582610a75565b9050602081019050919050565b82818337600083830152505050565b6000610b54610b4f84610b01565b610ae6565b905082815260208101848484011115610b7057610b6f610a70565b5b610b7b848285610b32565b509392505050565b600082601f830112610b9857610b97610a6b565b5b8135610ba8848260208601610b41565b91505092915050565b600080600080600060a08688031215610bcd57610bcc610a2b565b5b6000610bdb88828901610a56565b955050602086013567ffffffffffffffff811115610bfc57610bfb610a30565b5b610c0888828901610b83565b945050604086013567ffffffffffffffff811115610c2957610c28610a30565b5b610c3588828901610b83565b935050606086013567ffffffffffffffff811115610c5657610c55610a30565b5b610c6288828901610b83565b925050608086013567ffffffffffffffff811115610c8357610c82610a30565b5b610c8f88828901610b83565b9150509295509295909350565b600081519050919050565b600082825260208201905092915050565b6000819050602082019050919050565b610cd181610a35565b82525050565b6000610ce38383610cc8565b60208301905092915050565b6000602082019050919050565b6000610d0782610c9c565b610d118185610ca7565b9350610d1c83610cb8565b8060005b83811015610d4d578151610d348882610cd7565b9750610d3f83610cef565b925050600181019050610d20565b5085935050505092915050565b60006020820190508181036000830152610d748184610cfc565b905092915050565b600060208284031215610d9257610d91610a2b565b5b6000610da084828501610a56565b91505092915050565b600081519050919050565b600082825260208201905092915050565b60005b83811015610de3578082015181840152602081019050610dc8565b83811115610df2576000848401525b50505050565b6000610e0382610da9565b610e0d8185610db4565b9350610e1d818560208601610dc5565b610e2681610a75565b840191505092915050565b600073ffffffffffffffffffffffffffffffffffffffff82169050919050565b6000610e5c82610e31565b9050919050565b610e6c81610e51565b82525050565b600060e083016000830151610e8a6000860182610cc8565b5060208301518482036020860152610ea28282610df8565b91505060408301518482036040860152610ebc8282610df8565b91505060608301518482036060860152610ed68282610df8565b91505060808301518482036080860152610ef08282610df8565b91505060a0830151610f0560a0860182610cc8565b5060c0830151610f1860c0860182610e63565b508091505092915050565b60006020820190508181036000830152610f3d8184610e72565b905092915050565b7f4e487b7100000000000000000000000000000000000000000000000000000000600052602260045260246000fd5b60006002820490506001821680610f8c57607f821691505b60208210811415610fa057610f9f610f45565b5b50919050565b600082825260208201905092915050565b7f4a4120464f492041444f5441444f000000000000000000000000000000000000600082015250565b6000610fed600e83610fa6565b9150610ff882610fb7565b602082019050919050565b6000602082019050818103600083015261101c81610fe0565b9050919050565b61102c81610a35565b82525050565b60006020820190506110476000830184611023565b9291505056fea264697066735822122077e9a5dd9acace0c57056ae721617b4740b6405619f4395145090093f05653d164736f6c63430008090033",
    "linkReferences": {},
    "deployedLinkReferences": {}
}